:10000000021C279001B07480F01218D19001B0E06A
:1000100020E7F6E4FAEAC3941C748094805012EA54
:10002000901EBE93FFEA901EDA93FD121AD90A8041
:10003000E42243E10443E10243E10143D81FD2EA51
:10004000D2AF220213AEEF4E601505A105A105A1A6
:1000500005A105A105A105A1EF1F70EA1E80E722F9
:10006300021D589000F4120F8323C346009000F83A
:10007300120F8323C34600E4FFFEFDFC9001B71279
:100083000F6BC3120F2860089001B27401F0800552
:10009300E49001B2F0E4FFFEFDFC9001BB120F6B94
:1000A300C3120F2860089001B47401F08005E49036
:1000B30001B4F0E4FFFEFDFC9001BF120F6BC3120D
:1000C3000F2860089001B67401F08005E49001B632
:1000D300F09001B2E0FF600EE49001DDF09000E0EB
:1000E30004F0A3F08008E49000E0F0A304F0EF70C4
:1000F30003020231E49000E5F07F807ED17DF07C45
:10010300089001B7120F6BD3120F28403A9000E802
:10011300120F83000000009001DDE06015E47F040E
:10012300FEFDFC9001B7120F6B120DFE9000F8025A
:10013300022EE47F04FEFDFC9001B7120F6B120D3B
:10014300FE9000F402022E9001B7120F5F803190EF
:1001530000E5E0640760317F687E787D047C009071
:1001630001C3120F6BC3120F28501D9000E5E0046A
:10017300F09001C3120F5FE47B02FAF9F8120DFE4F
:100183009001C3120F7780C79000E8120F8300001D
:100193000004E47F027E08FDFC9000E8120F6BC3AD
:1001A300120F2850389000E8120F6B7F007E467DB7
:1001B300C37C23120E899001C3120F6BC3120F2845
:1001C300501B9000E8120F5FEF2402FFE43EFEE4B1
:1001D3003DFDE43CFC9000E8120F7780B59001DD13
:1001E300E09000E86011120F5F9001C3120F6B12D1
:1001F3000DFE9000F8800F120F5F9001C3120F6B7A
:10020300120DFE9000F4120F779000E8120F5FEFCB
:1002130024FCFFEE34FFFEED34FFFDEC34FFFCE481
:100223007B80FAF9F8120DFE9000E8120F77900127
:10023300B4E07003020374E49000E6F07F807ED1A3
:100243007DF07C089001BB120F6BD3120F28403A4C
:100253009000EC120F83000000009000E0E06015B6
:10026300E47F04FEFDFC9001BB120F6B120DFE90A8
:1002730000F8020371E47F04FEFDFC9001BB120F42
:100283006B120DFE9000F40203719001BB120F5F1D
:1002930080319000E6E0640760317F687E787D04FA
:1002A3007C009001C3120F6BC3120F28501D9000E6
:1002B300E6E004F09001C3120F5FE47B02FAF9F861
:1002C300120DFE9001C3120F7780C79000EC120F3E
:1002D3008300000004E47F027E08FDFC9000EC1222
:1002E3000F6BC3120F2850389000EC120F6B7F0076
:1002F3007E467DC37C23120E899001C3120F6BC30C
:10030300120F28501B9000EC120F5FEF2402FFE442
:100313003EFEE43DFDE43CFC9000EC120F7780B51B
:100323009000E0E09000EC6011120F5F9001C312A7
:100333000F6B120DFE9000F8800F120F5F9001C338
:10034300120F6B120DFE9000F4120F779000EC1257
:100353000F5FEF24FCFFEE34FFFEED34FFFDEC34C2
:10036300FFFCE47B80FAF9F8120DFE9000EC120F0B
:10037300779001B6E070030204B7E49000E7F07FE2
:10038300807ED17DF07C089001BF120F6BD3120FDA
:1003930028403A9000F0120F83000000009000E123
:1003A300E06015E47F04FEFDFC9001BF120F6B12A9
:1003B3000DFE9000F80204B4E47F04FEFDFC9001FE
:1003C300BF120F6B120DFE9000F40204B49001BF34
:1003D300120F5F80319000E7E0640760317F687E31
:1003E300787D047C009001C3120F6BC3120F285059
:1003F3001D9000E7E004F09001C3120F5FE47B025D
:10040300FAF9F8120DFE9001C3120F7780C790001E
:10041300F0120F8300000004E47F027E08FDFC90CD
:1004230000F0120F6BC3120F2850389000F0120F18
:100433006B7F007E467DC37C23120E899001C3121D
:100443000F6BC3120F28501B9000F0120F5FEF24A5
:1004530002FFE43EFEE43DFDE43CFC9000F0120F9D
:100463007780B59000E1E09000F06011120F5F908B
:1004730001C3120F6B120DFE9000F8800F120F5F75
:100483009001C3120F6B120DFE9000F4120F7790C0
:1004930000F0120F5FEF24FCFFEE34FFFEED34FF9C
:1004A300FDEC34FFFCE47B80FAF9F8120DFE9000BA
:1004B300F0120F777F007E467DC37C239000F412F9
:1004C3000F6BC3120F28500A9000F4120F8323C33B
:1004D30046007F007EE97DA47C359000F4120F6B0B
:1004E300D3120F28400A9000F4120F8335A4E900B9
:1004F3007F007E467DC37C239000F8120F6BC312EE
:100503000F28500A9000F8120F8323C346007F0080
:100513007EE97DA47C359000F8120F6BD3120F286F
:10052300400A9000F8120F8335A4E90090011012DD
:100533000F83000004009000F4120F5FE42FFFEE1E
:10054300341FFEED340AFDEC34FAFCE47B02FAF9C5
:10055300F8120DFE9000F4120F777BE17AF579051E
:1005630078009000F4120F5F120E899000FC120FB6
:10057300777FE17EF57D057C009000FC120F6B1206
:100583000DFEA804A905AA06AB079000F4120F5F9D
:10059300120DF0900110120F6B120DFE7BE17AF534
:1005A30079057800120E89900104120F77900118D3
:1005B300120F83000004009000F8120F5FE42FFF76
:1005C300EE341FFEED340AFDEC34FAFCE47B02FA50
:1005D300F9F8120DFE9000F8120F777BE17AF579A6
:1005E3000578009000F8120F5F120E899001001237
:1005F3000F777FE17EF57D057C00900100120F6B84
:10060300120DFEA804A905AA06AB079000F8120F65
:100613005F120DF0900118120F6B120DFE7BE17A41
:10062300F579057800120E8990010C120F777FE19E
:100633007EF57D057C00900104120F6B120DFE9078
:100643000110120F6B120E89E47B02FAF9F8120EF5
:1006530089C004C005C006C0077FE17EF57D057C27
:10066300009000FC120F6B120DFEE47B02FAF9F806
:10067300120E89E42FFFEE34E1FEED34F5FDEC3488
:1006830005FCD003D002D001D000120DE39001C8C5
:10069300120F777FE17EF57D057C0090010C120F30
:1006A3006B120DFE900118120F6B120E89E47B0280
:1006B300FAF9F8120E89C004C005C006C0077FE12D
:1006C3007EF57D057C00900100120F6B120DFEE498
:1006D3007B02FAF9F8120E89E42FFFEE34E1FEED06
:1006E30034F5FDEC3405FCD003D002D001D0001268
:1006F3000DE39001CC120F77E4FFFEFDFC9001B7F0
:10070300120F6BC3120F2870030207A19000E5E0DC
:10071300FF7E007401A807088005C333CE33CED80B
:10072300F9FFEE3395E0FDFC9000E8120F6B120D1C
:10073300FEE47B80FAF9F8120E89C004C005C006F6
:10074300C0079000E5E0FF7E007401A8070880055C
:10075300C333CE33CED8F97802C333CE33CED8F9F0
:10076300FFEE3395E0FDFCD003D002D001D00012A0
:100773000DE3C004C005C006C0079001DDE07005AD
:100783009001C880039001CC120F5FD003D002D038
:1007930001D000120E89900108120F77800A900190
:1007A30008120F8300000000E4FFFEFDFC9001BB74
:1007B300120F6BC3120F2870030208519000E6E07A
:1007C300FF7E007401A807088005C333CE33CED85B
:1007D300F9FFEE3395E0FDFC9000EC120F6B120D68
:1007E300FEE47B80FAF9F8120E89C004C005C00646
:1007F300C0079000E6E0FF7E007401A807088005AB
:10080300C333CE33CED8F97802C333CE33CED8F93F
:10081300FFEE3395E0FDFCD003D002D001D00012EF
:100823000DE3C004C005C006C0079000E0E07005FA
:100833009001C880039001CC120F5FD003D002D087
:1008430001D000120E89900114120F77800A9001D3
:1008530014120F8300000000E4FFFEFDFC9001BFB3
:10086300120F6BC3120F2870030208FF9000E7E01A
:10087300FF7E007401A807088005C333CE33CED8AA
:10088300F9FFEE3395E0FDFC9000F0120F6B120DB3
:10089300FEE47B80FAF9F8120E89C004C005C00695
:1008A300C0079000E7E0FF7E007401A807088005F9
:1008B300C333CE33CED8F97802C333CE33CED8F98F
:1008C300FFEE3395E0FDFCD003D002D001D000123F
:1008D3000DE3C004C005C006C0079000E1E0700549
:1008E3009001C880039001CC120F5FD003D002D0D7
:1008F30001D000120E8990011C020F7790011C1287
:100903000F8300000000227D077F03121AD97DCFD9
:100913007F10121AD97F11121AD97F12121AD99085
:100923000110120F5F7808120F39AD077F1A121AE0
:10093300D9900110120F5FAD077F1B121AD99000D7
:10094300FC120F5F7810120F39EF5403FFAD077FCE
:100953001C121AD99000FC120F5F7808120F39ADE0
:10096300077F1D121AD99000FC120F5FAD077F1E7F
:10097300121AD9900104120F5F7810120F39EF5435
:100983000FFFE4FEFDFCC004C005C006C0079001D4
:1009930010120F5F780C120F39EF54F0FFE4FEFDD5
:1009A300FCD003D002D001D000120F1BAD077F1F74
:1009B300121AD9900104120F5F7808120F39AD078C
:1009C3007F20121AD9900104120F5FAD077F211205
:1009D3001AD9900118120F5F7808120F39AD077FEB
:1009E30022121AD9900118120F5FAD077F23121A32
:1009F300D9900100120F5F7810120F39EF5403FFE3
:100A0300AD077F24121AD9900100120F5F780812E4
:100A13000F39AD077F25121AD9900100120F5FAD70
:100A2300077F26121AD990010C120F5F7810120F4C
:100A330039EF540FFFE4FEFDFCC004C005C006C03F
:100A430007900118120F5F780C120F39EF54F0FF63
:100A5300E4FEFDFCD003D002D001D000120F1BAD89
:100A6300077F27121AD990010C120F5F7808120F13
:100A730039AD077F28121AD990010C120F5FAD0709
:100A83007F29121AD99001B2E0607CE4FFFEFDFCDD
:100A93009000E8120F6BC3120F287005FC7D0C80C9
:100AA300047C007D009000E5E075F010A4FFE5F004
:100AB3004CFEEF4DFFEE3395E0FDFCC004C005C0D6
:100AC30006C0079000E8120F5F7810120F39EF5439
:100AD30003FFE4FEFDFCD003D002D001D000120FCF
:100AE3001BAD077F2C121AD99000E8120F5F78080C
:100AF300120F39AD077F2D121AD99000E8120F5F3C
:100B0300AD077F2E121AD99001B4E0607CE4FFFE9A
:100B1300FDFC9000EC120F6BC3120F287005FC7DD7
:100B23000C80047C007D009000E6E075F010A4FFCB
:100B3300E5F04CFEEF4DFFEE3395E0FDFCC004C045
:100B430005C006C0079000EC120F5F7810120F3932
:100B5300EF5403FFE4FEFDFCD003D002D001D0002C
:100B6300120F1BAD077F34121AD99000EC120F5FDE
:100B73007808120F39AD077F35121AD99000EC129D
:100B83000F5FAD077F36121AD99001B6E0607CE49F
:100B9300FFFEFDFC9000F0120F6BC3120F287005CF
:100BA300FC7D0C80047C007D009000E7E075F01074
:100BB300A4FFE5F04CFEEF4DFFEE3395E0FDFCC0E6
:100BC30004C005C006C0079000F0120F5F78101232
:100BD3000F39EF5403FFE4FEFDFCD003D002D00134
:100BE300D000120F1BAD077F3C121AD99000F012F0
:100BF3000F5F7808120F39AD077F3D121AD99000A5
:100C0300F0120F5FAD077F3E121AD99001B2E06078
:100C13001C9001B7121D089001DDE0C43354E04479
:100C23004CFF9001DEE04FFD7F10121AD99001B402
:100C3300E0601C9001BB121D089000E0E0C4335437
:100C4300E0444CFF9001DEE04FFD7F11121AD99072
:100C530001B6E0601F9001BF120F5F121D0B9000E1
:100C6300E1E0C43354E0444CFF9001DEE04FFD7FEC
:100C730012121AD97DAC7FB1121AD97F017E0012EC
:100C83001E239001B074E0F01218D19001B0E0542B
:100C9300E070F57F01FE121E239001B4E07F026035
:100CA300027F009001B2E07E0160027E00EE4FFF02
:100CB3009001B6E07E0460027E00EF4EFD7F0302EA
:100CC3001AD9E709F608DFFA8046E709F208DFFADE
:100CD300803E88828C83E709F0A3DFFA8032E30940
:100CE300F608DFFA8078E309F208DFFA8070888279
:100CF3008C83E309F0A3DFFA806489828A83E0A30B
:100D0300F608DFFA805889828A83E0A3F208DFFAC3
:100D1300804C80D280FA80C680D4806980F2803390
:100D2300801080A680EA809A80A880DA80E280CA58
:100D3300803389828A83ECFAE493A3C8C582C8CC42
:100D4300C583CCF0A3C8C582C8CCC583CCDFE9DE9C
:100D5300E7800D89828A83E493A3F608DFF9ECFA2E
:100D6300A9F0EDFB2289828A83ECFAE0A3C8C5824D
:100D7300C8CCC583CCF0A3C8C582C8CCC583CCDF9F
:100D8300EADEE880DB89828A83E493A3F208DFF951
:100D930080CC88F0EF60010E4E60C388F0ED240232
:100DA300B4040050B9F582EB2402B4040050AF231D
:100DB30023458223900D1573BB010689828A83F034
:100DC300225002F722BBFE01F322C5F0F8A3E0286C
:100DD300F0C5F0F8E582158270021583E038F02241
:100DE300EF2BFFEE3AFEED39FDEC38FC22C3EF9B0F
:100DF300FFEE9AFEED99FDEC98FC22E88FF0A4CC6F
:100E03008BF0A42CFCE98EF0A42CFC8AF0EDA42C2E
:100E1300FCEA8EF0A4CDA8F08BF0A42DCC3825F0FD
:100E2300FDE98FF0A42CCD35F0FCEB8EF0A4FEA9E8
:100E3300F0EB8FF0A4CFC5F02ECD39FEE43CFCEAF5
:100E4300A42DCE35F0FDE43CFC2275F0087582003C
:100E5300EF2FFFEE33FECD33CDCC33CCC58233C57C
:100E6300829BED9AEC99E58298400CF582EE9BFE0D
:100E7300ED9AFDEC99FC0FD5F0D6E4CEFBE4CDFA68
:100E8300E4CCF9A88222B800C1B90059BA002DEC0C
:100E93008BF084CFCECDFCE5F0CBF97818EF2FFFA4
:100EA300EE33FEED33FDEC33FCEB33FB10D703994C
:100EB3004004EB99FB0FD8E5E4F9FA227818EF2FF9
:100EC300FFEE33FEED33FDEC33FCC933C910D70518
:100ED3009BE99A4007EC9BFCE99AF90FD8E0E4C937
:100EE300FAE4CCFB2275F010EF2FFFEE33FEED3367
:100EF300FDCC33CCC833C810D7079BEC9AE8994094
:100F03000AED9BFDEC9AFCE899F80FD5F0DAE4CDF5
:100F1300FBE4CCFAE4C8F922EF4BFFEE4AFEED49BD
:100F2300FDEC48FC22EB9FF5F0EA9E42F0E99D427E
:100F3300F0E89C45F022E8600FECC313FCED13FDD1
:100F4300EE13FEEF13FFD8F122E8600FEFC333FF78
:100F5300EE33FEED33FDEC33FCD8F122E0FCA3E0ED
:100F6300FDA3E0FEA3E0FF22E0F8A3E0F9A3E0FA8B
:100F7300A3E0FB22ECF0A3EDF0A3EEF0A3EFF0224D
:100F8300A8828583F0D083D082120F9A120F9A120F
:100F93000F9A120F9AE473E493A3C583C5F0C58334
:100FA300C8C582C8F0A3C583C5F0C583C8C582C8B8
:100FB30022E0FBA3E0FAA3E0F922EBF0A3EAF0A31B
:100FC300E9F022BB010689828A83E0225002E722EC
:100FD300BBFE02E32289828A83E49322BB010CE5F0
:100FE3008229F582E5833AF583E0225006E92582DA
:100FF300F8E622BBFE06E92582F8E222E58229F51E
:1010030082E5833AF583E49322F8E0FBA3A3E0F9B6
:1010130025F0F0E582158270021583E0FA38F0229C
:10102300D083D082F8E4937012740193700DA3A35C
:1010330093F8740193F5828883E473740293686070
:10104300EFA3A3A380DFE51024E6F582E43401F5E2
:1010530083E00510229001E33007039001E6E47575
:10106300F00112100C020FC62000E97F2ED200807F
:1010730018EF540F2490D43440D4FF30040BEF24E2
:10108300BFB41A0050032461FFE511600215110576
:1010930014E5147002051330070E9001E3E475F0B4
:1010A3000112100CEF020DBB021DB47403D20780B2
:1010B30003E4C207F5109001E3120FBDE4F511F547
:1010C30013F514E51160077F2012108C80F575125B
:1010D300FFC201C200C202C203C205C206C2081295
:1010E3001058FF700D3007057F0012109DAF14AE2E
:1010F3001322B4255FC2D5C204121058FF24D0B402
:101103000A00501A75F00A781130D50508B6FF01A8
:1011130006C6A426F620D5047002D20380D924CFB4
:10112300B41A00EF5004C2E5D20402129ED2018029
:10113300C6D20080C0D20280BCD2D580BAD205808C
:10114300B47F2012108C2002077401B5110040F106
:10115300121049FF12108C0210C6D208D2068095D5
:10116300121049FB121049FA121049F94A4B700642
:10117300796F7A137BFF20022EE511602A7E008EA1
:1011830082758300120FDF60060EEE651270F0C2E7
:10119300D5EBC0E0EAC0E0E9C0E0EE1212E5D0E032
:1011A300F9D0E0FAD0E0FB120FC6FF60AAEBC0E073
:1011B300EAC0E0E9C0E012108CD0E02401F9D0E0ED
:1011C3003400FAD0E0FBE5120460DCD512D9808745
:1011D3007BFF7A1279E1D202809C79108002790830
:1011E300C206C2088008D2D5790A8004790AC2D51A
:1011F300E512047002F512E4FAFDFEFF121049FC39
:101203007B08200113121049FD7B1030000A1210D5
:1012130049FE121049FF7B20EC3382D592D550133F
:10122300C3E43000069FFFE49EFEE42001039DFD1E
:10123300E49CFCE4CBF8C201EC700CCFCECDCCE83F
:1012430024F8F870F38017C3EF33FFEE33FEED336A
:10125300FDEC33FCEB33FB994002FB0FD8E9EB3099
:101263000105F8D0E0C448B201C0E00AEC4D4E4F8E
:1012730078207B0070C2EAB5120040BCC0E01212B5
:10128300E7D0F0D0E0200104C4C0E0C4B201C0F054
:10129300121075D0F0D5F0EB0210C61210231163B3
:1012A3005311DD5811344C11304211E14F11E9440F
:1012B30011E94911494311EF5511D34611D3451192
:1012C300D347138F5011382D113C2E115F2B114032
:1012D30023115D2013782A10F848000011573F3F6F
:1012E3003F00790AA2D5200314300509B91002047E
:1012F30004B9080104A2D5200602500104200268A3
:101303009202B511005034C0E07F203003197F30C2
:10131300A20272067205500F12133EC202C206C227
:1013230005C2087F30800F300503E9C0E012108C3E
:10133300300503D0E0F9D0E0B511CC3005177F308C
:10134300B9100C12108C7F583004077F788003B9D2
:10135300080312108C3002057F2D02108C7F202091
:1013630008F87F2B2006F322920280CF286E756C3B
:101373006C2900D2011210493001F8C201781130F2
:10138300D50108F60210F82D50434958121049248C
:1013930003B405004001E490138A9312107D743A5C
:1013A30012107DD2037511040211DDC0E0C0F0C03C
:1013B30083C082C0D075D00820D903021605E5D9B1
:1013C300543F70030215F724E0700302158724FECF
:1013D300601124F2601E242E6003021603121E0104
:1013E30002160375D50053D4F3E5D454FC4402F537
:1013F300D402160390020BE5DBF0E06408600302FD
:101403001550900000E0FF9001B3F0900006E090CB
:1014130001B1F090020BE4F0900001E09001B5F00F
:101423007E00EF64C070399001C7E0FD901EA49365
:10143300900000F0ED901EA593900001F090020B38
:101443007402F09001C7E0C394187480948050072D
:10145300E02402F00215569001C77418F0021556E5
:10146300EF64404E700990020B7409F00215569018
:1014730001B5E024FB700302151F24FD7003021560
:1014830029147003021546240360030215509000CB
:1014930003E024FE60170470287BFF7A1E796B90AB
:1014A30001D8120FBD90020B7412F0801A7BFF7AE1
:1014B3001E797D9001D8120FBD90020B7427F08026
:1014C3000690020B74FFF090020BE0FF9001B1E075
:1014D300D39F4002EFF09001B1E0FFC39408748002
:1014E300948040047F08800090020BEFF07E007828
:1014F300007C007D019001D8120FB4120D9590016C
:10150300B1E0FF90020BE0FEC3EF9E9001B1F0EE5D
:10151300FF9001D9E48FF0120DCD8037900002E0E7
:101523009001B1F0802D9000E2E0900000F0900176
:10153300B1E0C3940174809480401890020B74014D
:10154300F08010900002E09000E2F0800690020B21
:1015530074FFF090020BE0FF7E00F4700C9001B575
:1015630074FFF075DCCF021603D3EF9408EE6480AA
:101573009480500890020BE0F5DD800375DD007563
:10158300DCC0807C9001B5E024FB605214705D9058
:1015930001B1E0FFC394087480948040047F088005
:1015A3000090020BEFF07E0078007C007D0190013B
:1015B300D8120FB4120D959001B1E0FF90020BE029
:1015C300FEC3EF9E9001B1F0EEFF9001D9E48FF0DE
:1015D300120DCD90020BE0F5DD63DC408022E5E3E4
:1015E3005480FF9001B1E04FF5E3800375DD007592
:1015F300DC02800C90020BE5DBF075DD0075DC008E
:10160300C2D930D80975E300C2DAC2D9C2D830DAF8
:1016130023C2DAE5DA30E21FE5A220E7FB75A15524
:1016230075A1AA75A98143870275A15575A1AA75EC
:10163300A900800375D800D0D0D082D083D0F0D059
:10164300E032900120E064AA60037F002290012F22
:10165300E0645560037F0022E4FF9001DEF0A3F015
:101663009001DEE0FCA3E0FDC3940EEC6480948063
:10167300501974202DF58274013CF583E06FFF90BF
:1016830001DEE475F001120DCD80D5EF60037F001C
:1016930022E49001DEF0A3F09001DEE0FCA3E0FD84
:1016A300C3940FEC64809480501974202DF58274D8
:1016B300013CF583E02FFF9001DEE475F001120D8C
:1016C300CD80D5EF60037F0022900121E0FFE4FC91
:1016D300FDFE9001B7120F779001B7120F5F7808E4
:1016E300120F4C9001B7120F779001B7120F6B9046
:1016F3000122E0FFE4FCFDFE120DE39001B7120F9F
:10170300779001B7120F5F7808120F4C9001B71250
:101713000F779001B7120F6B900123E0FFE4FCFDFC
:10172300FE120DE39001B7120F779001B7120F5F0E
:101733007808120F4C9001B7120F779001B7120F70
:101743006B900124E0FFE4FCFDFE120DE39001B772
:10175300120F77900125E0FFE4FCFDFE9001BB1220
:101763000F779001BB120F5F7808120F4C9001BBEB
:10177300120F779001BB120F6B900126E0FFE4FC80
:10178300FDFE120DE39001BB120F779001BB120F08
:101793005F7808120F4C9001BB120F779001BB12B8
:1017A3000F6B900127E0FFE4FCFDFE120DE39001B7
:1017B300BB120F779001BB120F5F7808120F4C908A
:1017C30001BB120F779001BB120F6B900128E0FF52
:1017D300E4FCFDFE120DE39001BB120F779001298B
:1017E300E0FFE4FCFDFE9001BF120F779001BF12F2
:1017F3000F5F7808120F4C9001BF120F779001BF53
:10180300120F6B90012AE0FFE4FCFDFE120DE39042
:1018130001BF120F779001BF120F5F7808120F4CB0
:101823009001BF120F779001BF120F6B90012BE055
:10183300FFE4FCFDFE120DE39001BF120F77900150
:10184300BF120F5F7808120F4C9001BF120F7790F1
:1018530001BF120F6B90012CE0FFE4FCFDFE120DA3
:10186300E39001BF120F77E49001DEF0A3F0FFFED7
:10187300FDFC9001B7120F6BC3120F28600A900191
:10188300DEE475F001120DCDE4FFFEFDFC9001BB1B
:10189300120F6BC3120F28600A9001DEE475F0018A
:1018A300120DCDE4FFFEFDFC9001BF120F6BC312BE
:1018B3000F28600A9001DEE475F001120DCD90014E
:1018C300DEE07004A3E064037F017001FF227B016B
:1018D3007A0179B0E4FF9001DFEFF0C294121DF1B9
:1018E300C2B2121DF17E60EE25E0FEE4FDEDC3946D
:1018F30007748094805019EE30E704D2948002C2BA
:1019030094EE25E0FE121DECC2B2121DF10D80DD36
:10191300121DDB309402C322C2B2121DF19001DF0B
:10192300E0FEE4FDEDC39408748094805019EE301A
:10193300E704D2948002C294EE25E0FE121DECC2AD
:10194300B2121DF10D80DD121DEA309402C322C2D2
:10195300B2121DF1C294121DECD294121DF1C29465
:10196300121DF1C2B2121DF17E60EE25E0FEE4FD10
:10197300EDC39407748094805019EE30E704D29439
:101983008002C294EE25E0FE121DECC2B2121DF1DC
:101993000D80DDD294121DDD309402C322C2B21237
:1019A3001DF1E4FEFDEDC39408748094805015EEA0
:1019B30025E0FE3094034401FE121DECC2B2121D59
:1019C300F10D80E1C294121DECD294121DF1EE12BE
:1019D3000DBBD32290013074AAF090013F7455F0EF
:1019E300900108120F5F7818120F39900131EFF050
:1019F300900108120F5F7810120F39900132EFF047
:101A0300900108120F5F7808120F39900133EFF03D
:101A1300900108120F5F900134EFF0900114120F40
:101A23005F7818120F39900135EFF0900114120FFF
:101A33005F7810120F39900136EFF0900114120FF6
:101A43005F7808120F39900137EFF0900114120FED
:101A53005F900138EFF090011C120F5F7818120F9E
:101A630039900139EFF090011C120F5F7810120FBB
:101A73003990013AEFF090011C120F5F7808120FB2
:101A83003990013BEFF090011C120F5F90013CEF86
:101A9300F0E4FFFDFC74302DF58274013CF583E026
:101AA3006FFF0DBD00010CED640D4C70E890013D1E
:101AB300EFF0E4FFFCFD74302DF58274013CF583F7
:101AC300E02FFF0DBD00010CED640E4C70E8EFF448
:101AD3000490013EF022AE07C294121DF1C2B2126D
:101AE3001DF17C60EC25E0FCE4FBEBC39407748000
:101AF30094805019EC30E704D2948002C294EC2510
:101B0300E0FC121DECC2B2121DF10B80DD121DDBD5
:101B1300309402C322C2B2121DF1AF06AC07E4FB3C
:101B2300EBC39408748094805019EC30E704D2948A
:101B33008002C294EC25E0FC121DECC2B2121DF12E
:101B43000B80DD121DEA309402C322C2B2121DF1D2
:101B5300AF05AC07E4FBEBC3940874809480501981
:101B6300EC30E704D2948002C294EC25E0FC121D11
:101B7300ECC2B2121DF10B80DD121DEA309402C3D8
:101B830022C2B2121DF1C294121DECD294121DF1A5
:101B9300D3224396045397FB4396105397EFE5964E
:101BA3004410F592E59754EFF593C2B4D2B2D294B0
:101BB3007F0A7E00121E23121E4C7F0A7E00121E15
:101BC300237F0A7E00121E23120003121E3A121DE7
:101BD30086120032E4F5DDF5D3F5D5D2B49000E3F7
:101BE300E0D3940F7480948040F378207C017D01CE
:101BF3007B017A0179707E007F10120D95C2B4E4E7
:101C03009000E3F0A3F0121645EF6401700F120089
:101C13006612090A1219D79000E47410F0121CB36B
:101C2300D2B480B9787FE4F6D8FD758121021C6EA9
:101C3300021B95E493A3F8E493A34003F68001F217
:101C430008DFF48029E493A3F85407240CC8C333B2
:101C5300C4540F4420C8834004F456800146F6DF81
:101C6300E4800B0102040810204080901E5EE47E95
:101C7300019360BCA3FF543F30E509541FFEE49376
:101C8300A360010ECF54C025E060A840B8E493A33D
:101C9300FAE493A3F8E493A3C8C582C8CAC583CA68
:101CA300F0A3C8C582C8CAC583CADFE9DEE780BE20
:101CB3009000E4E0D3942074809480402878487C9A
:101CC300007D017B017A0179307E007F20120D9522
:101CD30075D52053D4FCE5D4540360FA9000E4E0B6
:101CE30024E0F080CB9000E4E0FF7E0078487C00A5
:101CF3007D017B017A017930120D959000E4E0F5C6
:101D0300D553D4FC22120F5F9001DF120F777F00AF
:101D13007E2D7D317C019001DF120F6BD3120F28D2
:101D230040037F03227FC07EE17DE47C009001DFDE
:101D3300120F6BD3120F2840037F02227F807E96FF
:101D43007D987C009001DF120F6BD3120F287F0068
:101D530040027F0122C0E0C0F0C083C082C0D075C2
:101D6300D0087BFF7A1E79F6E5C65440FF9001E662
:101D7300E4F0A3EFF01210B4D0D0D082D083D0F02F
:101D8300D0E03275E50075E40843EB0443EB0853F8
:101D9300EBFE75D41275EF0075EEA043EA4053EAEB
:101DA300EF75D21275ED0075EC0053EAF375DC02A2
:101DB30022EFB40A07740D121DBF740A309811A8DC
:101DC30099B8130CC2983098FDA899C298B811F627
:101DD3003099FDC299F59922C294121DF1D2B21223
:101DE3001DF1C2B2121DF1D294121DF1D2B2E4FF61
:101DF300EFC394077480948050030F80F322AFDB0A
:101E03007E0078707C017D017B017A007908120DD8
:101E1300959000E3E5DBF0E5D454F34408F5D422D0
:101E2300AD07AC06ED4C600E7FE87E03120046ED75
:101E33001D70F11C80EE22E4F5E243E229F5E35341
:101E4300E2BF53D1FB43D1012275A15575A1AAE588
:101E5300B954F84406F5B9E4F5A1224101C700419C
:101E630000E4004100E3000012011001FF0002083A
:101E7300861A2375040300000001090227000101EB
:101E83000080F00904000003FF010200070582023D
:101E93002000000705020220000007058103080057
:101EA300013000C300FFEC9FECFFECDFECDFECDF65
:101EB300EC9FEC9FEC9FEC9FECFFEC0318101112CE
:101EC3002A2B2F303132333738393A3B3F40419553
:101ED30096A1A5A6A7B7BB072ACFCFCF00010000C5
:101EE30000000100000000010000000001000000EC
:101EF30000D2004750494F5F5354415455533A2041
:061F0300253032780A00CF
:00000001FF
